:020000040800F2
:10000000000002206DAA0008D5190008DD190008BB
:10001000E5190008ED190008F519000800000000B6
:1000200000000000000000000000000021A3000804
:10003000BDAA00080000000061A50008C9A50008CD
:10004000BDAA0008BDAA0008BDAA0008BDAA0008F4
:10005000BDAA0008BDAA0008BDAA0008BDAA0008E4
:10006000BDAA0008BDAA0008BDAA0008BDAA0008D4
:10007000BDAA0008BDAA0008BDAA0008BDAA0008C4
:10008000BDAA0008BDAA0008BDAA0008BDAA0008B4
:10009000BDAA0008BDAA0008BDAA0008BDAA0008A4
:1000A000BDAA0008BDAA0008BDAA0008BDAA000894
:1000B000BDAA0008BDAA0008BDAA00082D1A0008A4
:1000C000411A0008BDAA0008BDAA0008BDAA000880
:1000D000BDAA0008191A0008BDAA0008BDAA000898
:1000E000BDAA0008BDAA0008BDAA0008BDAA000854
:1000F000BDAA0008BDAA0008BDAA0008BDAA000844
:10010000BDAA0008BDAA0008BDAA0008BDAA000833
:10011000BDAA0008BDAA00080D1C0008BDAA000861
:10012000FD190008BDAA0008BDAA0008BDAA000864
:10013000BDAA00080000000000000000BDAA0008E1
:10014000BDAA0008BDAA0008BDAA0008BDAA0008F3
:10015000BDAA0008BDAA0008BDAA0008BDAA0008E3
:10016000BDAA0008BDAA0008BDAA0008BDAA0008D3
:10017000BDAA0008BDAA0008BDAA00080000000032
:1001800000000000BDAA0008000000000000000000
:10019000BDAA00080000000000000000BDAA000881
:1001A000000000000000000000000000BDAA0008E0
:1001B000BDAA0008BDAA0008BDAA0008BDAA000883
:0401C000BDAA0008CC
:1001D00010B5054C237833B9044B13B10448AFF381
:1001E00000800123237010BD740000200000000077
:1001F00030B30008084B10B51BB108490848AFF3ED
:1002000000800848036803B910BD074B002BFBD0E2
:10021000BDE81040184700BF000000007800002033
:1002200030B30008740000200000000053B94AB940
:10023000002908BF00281CBF4FF0FF314FF0FF30EE
:1002400000F07EB9ADF1080C6DE904CE00F006F8BF
:10025000DDF804E0DDE9022304B070472DE9F04742
:100260008C460E460446089D002B50D18A42174604
:100270006CD9B2FA82FEBEF1000F0BD0CEF1200491
:1002800020FA04F401FA0EF644EA060C02FA0EF71C
:1002900000FA0EF44FEA1749220CBCFBF9F01FFAE2
:1002A00087F809FB10C642EA064600FB08F3B34292
:1002B00009D9F61900F1FF3280F02281B34240F2F1
:1002C0001F8102383E44F61AA2B2B6FBF9F309FBCD
:1002D000136642EA064403FB08F8A04509D9E4196D
:1002E00003F1FF3280F00A81A04540F20781023B12
:1002F0003C44C8EB040443EA00400021002D62D0D6
:1003000024FA0EF400232C606B60BDE8F0878B426A
:1003100007D9002D55D0002185E841000846BDE8E9
:10032000F087B3FA83F1002940F09080B34202D302
:10033000824200F2F880841A66EB03060120B4467C
:10034000002D40D085E81010BDE8F08712B90127D4
:10035000B7FBF2F7B7FA87FEBEF1000F35D1F31BFA
:100360004FEA17481FFA87FC0121B3FBF8F0220C73
:1003700008FB103642EA06460CFB00F3B34207D9ED
:10038000F61900F1FF3202D2B34200F2CE801046DD
:10039000F61AA2B2B6FBF8F308FB136642EA06446B
:1003A0000CFB03FCA44507D9E41903F1FF3202D288
:1003B000A44500F2B5801346CCEB040443EA0040A8
:1003C0009CE729462846BDE8F087CEF1200106FAD1
:1003D0000EF307FA0EF720FA01F94FEA1748CE405C
:1003E00049EA0309B6FBF8FA4FEA194408FB1A6612
:1003F0001FFA87FC44EA06430AFB0CF29A4200FA11
:100400000EF40AD9DB190AF1FF3180F087809A4295
:1004100040F28480AAF1020A3B449B1A1FFA89F930
:10042000B3FBF8F108FB113349EA034301FB0CF677
:100430009E4207D9DB1901F1FF326BD29E4269D986
:1004400002393B449B1B41EA0A418EE7C1F1200E71
:1004500022FA0EF48B40234320FA0EF706FA01F439
:100460004FEA134C26FA0EF63C43B6FBFCF9270C78
:100470000CFB19661FFA83F847EA064609FB08F7E2
:10048000B74202FA01F200FA01FA08D9F61809F1A6
:10049000FF3041D2B7423FD9A9F102091E44F61BF1
:1004A000A0B2B6FBFCF40CFB146640EA064704FB62
:1004B00008F8B84507D9FF1804F1FF3028D2B8452D
:1004C00026D9023C1F4444EA0940C8EB0707A0FBB9
:1004D00002894F4544464E4614D329D065B3BAEB42
:1004E000040367EB060707FA0EFECB40CF404EEA47
:1004F000030385E888000021BDE8F0871346F8E68D
:100500001046E0E6B8EB020469EB03060138E5E7C4
:100510000446D8E7114695E78146C0E78A467CE75E
:10052000023B3C4448E708460AE702383E442FE7CE
:10053000C245E7D33E46D1E72946BDE8F08700BF74
:10054000704700BF00000000000000000000000035
:1005500001F0FF01102A2BDB10F0070F08D010F874
:10056000013B013A8B422DD010F0070F42B3F6D178
:10057000F0B441EA012141EA014122F007047FF091
:1005800000070023F0E80256083C85EA010586EAE8
:10059000010685FA47F5A3FA87F586FA47F6A5FA24
:1005A00087F68EB9EED1F0BC01F0FF0102F0070230
:1005B00032B110F8013B013A83EA010313B1F8D1DB
:1005C0000020704701387047002D06BF35460338BC
:1005D000073815F0010F07D1013015F4807F02BFF5
:1005E000013015F4C03F0130F0BC0138704700BF46
:1005F00070B50E4B0E4CE41AA41000251E46A54201
:1006000004D056F8253098470135F8E70AF090FEF7
:10061000084C094BE41AA41000251E46A54204D03C
:1006200056F8253098470135F8E770BDE0BB000863
:10063000E0BB0008E4BB0008E0BB0008024403463E
:10064000934202D003F8011BFAE7704780B584B0EB
:1006500002AF01F011FB00F0FDF900F0EBF9012011
:1006600008F078FD0246334B1A60324B1B68002BB2
:1006700001D100F07BF800220621012008F0E2FC05
:1006800002462D4B1A602C4B1B68002B01D100F049
:100690006DF8294B1B682949184609F049FA0022D0
:1006A0000421012008F0CEFC0246254B1A60244BA1
:1006B0001B68002B01D100F059F8214B1B68214920
:1006C000184609F035FA204B0193032300930023C9
:1006D0004FF480721D491E4807F0B0F878607B68BF
:1006E000012B01D000F042F81A4B01930323009331
:1006F00000234FF480721849184807F09FF878607B
:100700007B68012B01D000F031F8154B01930223D7
:10071000009300234FF4C0721249134807F08EF87B
:1007200078607B68012B01D000F020F807F09EFA7A
:10073000FEE700BF9C0000209800002048B300089E
:10074000A400002054B30008A000002060B30008FB
:1007500075070008A80000206CB30008890800088D
:10076000AC00002078B30008F108000880B400AFA6
:10077000FEE700BF80B584B000AF78600222184960
:10078000184801F0DFFA01221749184801F0DAFA97
:100790004FF0FF320121002008F0DCF9144B1B68F8
:1007A0000A21184608F0C4FE0346012BF0D10C4B79
:1007B0001B883B810A4B5B887B81094B9B88BB81F3
:1007C0000B4B186800230022002108F0DBFC094BCA
:1007D000186807F108010223002208F0D3FCD7E7CC
:1007E00090000020B0000020940000204001002074
:1007F0009C0000209800002080B588B000AF786091
:100800001A4B9B68FB611A4BDB6C9BB27B83194BC9
:10081000DB6C9BB23B83184BDB6C9BB2FB82174BB0
:100820001B88BB82154B5B887B82144B9B883B8269
:100830000023FB607B681B680D4A934212D1104B6A
:100840001B6807F10C020021184608F0EDF9FB685F
:10085000002B07D00B4B4FF080521A60BFF34F8F25
:10086000BFF36F8F00BF2037BD4680BD002301401E
:1008700000200140002101400022014090000020A2
:10088000A000002004ED00E080B586B000AF7860E5
:10089000FA23FB6064237B6140F6FF733B6107F042
:1008A0003DFB0346BB60FB68002210210E4801F0AF
:1008B000C1FF0E4B186807F10C010223002208F05B
:1008C00061FCFA683B699A4202D30023FB6003E0B3
:1008D000FA687B691344FB6007F108034FF47A71EF
:1008E000184607F013F9DEE744030020A4000020B7
:1008F00090B59DB004AF786000F036FC07F00EFBB9
:100900000346FB60424B1B6807F154016422184602
:1009100008F032FD0346012B73D13E4B1B6807F1F3
:1009200050010022184608F0FDFE3B6DB7F8542038
:10093000B7F85610B7F85800044607F110000294B3
:1009400001910092344A40210AF0CCF8F865FB6D21
:100950009AB207F110014FF0FF33304806F07EF8ED
:100960003B6D07F110002E4A40210AF0BBF8002130
:10097000002000F0ADFD2B4B07F11000012200928A
:100980000ECB00F07FFDB7F8543007F11000264A77
:1009900040210AF0A7F81021002000F099FD214B1A
:1009A00007F11000012200920ECB00F06BFDB7F8AA
:1009B000563007F110001D4A40210AF093F820211B
:1009C000002000F085FD174B07F110000122009276
:1009D0000ECB00F057FDB7F8583007F11000144A5D
:1009E00040210AF07FF83021002000F071FD0D4B0E
:1009F00007F11000012200920ECB00F043FD00F041
:100A000035FC07F10C036421184607F07FF879E7FD
:100A100098000020A400002084B30008A802002051
:100A2000B4B3000878BB0008C0B30008CCB300081A
:100A3000D8B3000880B500AF00F060F900F0AAFA62
:100A400000F072F800F0F0F900F054FA00F0EEFA5D
:100A500000BF80BD80B594B000AF07F11C03342205
:100A600000211846FFF7EAFD07F1080300221A608B
:100A70005A609A60DA601A6100237B60284A284B2A
:100A80001B6C43F080531364254B1B6C03F08053A5
:100A90007B607B6800233B60224A224B1B6843F447
:100AA000404313601F4B1B6803F440433B603B68AB
:100AB0000123FB614FF480333B6202237B634FF4DD
:100AC0008003BB630823FB634FF4A8733B640223DA
:100AD0007B640923BB6407F11C03184605F04CF93D
:100AE0000346002B01D0FFF741FE0F23BB6002231A
:100AF000FB6000233B614FF4A0537B614FF48053B4
:100B0000BB6107F108030521184604F039FE0346CE
:100B1000002B01D0FFF72AFE00BF5037BD4680BD35
:100B20000038024000700040B0B590B000AF07F14F
:100B3000340300221A605A609A6007F124030022ED
:100B40001A605A609A60DA600023FB60634A634B64
:100B50005B6C43F480735364604B5B6C03F4807391
:100B6000FB60FB680023BB605C4A5C4B5B6C43F43E
:100B700000735364594B5B6C03F40073BB60BB6838
:100B800000237B60554A554B5B6C43F48063536490
:100B9000524B5B6C03F480637B607B6800233B609B
:100BA0004E4A4E4B1B6B43F0010313634B4B1B6BC5
:100BB00003F001033B603B6807F1100300221A6059
:100BC0005A609A60DA601A6107233B6103237B61F4
:100BD0000023BB6107F110031946414802F0BCFA3B
:100BE000404B414A1A603F4B4FF480325A603D4BB4
:100BF00000229A603B4B00221A613A4B00221A767F
:100C0000384B002283F82020364B4FF08052DA62B6
:100C1000344B4FF0C0629A62324B0022DA60314BA3
:100C20000122DA612F4B012283F830202D4B012263
:100C30005A612C4801F042F82C4B2D4A1A602B4A7D
:100C4000284B141D1D1D0FCD0FC40FCD0FC495E8EB
:100C50000F0084E80F00254801F030F8254B264AA4
:100C60001A60244A1F4B141D1D1D0FCD0FC40FCD3C
:100C70000FC495E80F0084E80F001E4801F01EF82D
:100C800016237B634FF44043BB630023FB6307F1F0
:100C900034031946134801F02BFC00237B62012327
:100CA000BB620423FB6207F1240319460D4801F0DF
:100CB0006BF901237B6207F1240319460B4801F00D
:100CC00063F902237B6207F124031946094801F006
:100CD0005BF900BF4037BD46B0BD00BF00380240E1
:100CE00000000240B000002000200140F800002079
:100CF00000210140400100200022014080B582B067
:100D000000AF00237B603F4A3E4B1B6B43F4001354
:100D100013633C4B1B6B03F400137B607B68002365
:100D20003B60384A374B1B6B43F480031363354BEE
:100D30001B6B03F480033B603B68334B334A1A6000
:100D4000314B00225A60304B00229A602E4B002219
:100D5000DA602D4B4FF480621A612B4B4FF4006226
:100D60005A61294B4FF400529A61274B4FF480721D
:100D7000DA61254B4FF400321A62234801F0DEFDA0
:100D8000234B214A9A63204B214A9A630022052172
:100D9000382001F0ABFC382001F0C4FC1D4B1E4A8A
:100DA0009A631D4B1B4A9A631C4B1D4A1A601B4BCE
:100DB0004FF080625A60194B00229A60174B002254
:100DC000DA60164B4FF480621A61144B4FF40062E4
:100DD0005A61124B4FF400529A61104B4FF48072DB
:100DE000DA610E4B4FF400321A620C4801F0A6FD96
:100DF0000C4B0A4A9A63094B0A4A9A6300BF0837A8
:100E0000BD4680BD003802408801002010640240C9
:100E1000B0000020F8000020E80100204802002077
:100E2000406402404001002080B588B000AF00233C
:100E3000BB602C4A2B4B5B6C43F010035364294B73
:100E40005B6C03F01003BB60BB6800237B60254A2A
:100E5000244B1B6B43F001031363224B1B6B03F00A
:100E600001037B607B6807F10C0300221A605A6063
:100E70009A60DA601A614FF4C063FB6002233B6141
:100E800000237B610323BB610723FB6107F10C0394
:100E90001946154802F060F9144B154A1A60134BB5
:100EA0004FF4E1325A60114B00229A600F4B00223E
:100EB000DA600E4B00221A610C4B0C225A610B4B6C
:100EC00000229A61094B0022DA61084805F076FD9C
:100ED0000346002B01D0FFF749FC00BF2037BD4679
:100EE00080BD00BF0038024000000240A802002080
:100EF0000010014080B582B000AF00237B60214A22
:100F0000204B1B6C43F4001313641E4B1B6C03F447
:100F100000137B607B6800233B601A4A194B1B6BF4
:100F200043F002031363174B1B6B03F002033B6098
:100F30003B68154B154A1A60134B154A5A60124B01
:100F400000229A60104B0022DA600F4B4FF480426F
:100F50001A610D4B00225A610B4B00229A610A4B19
:100F60000022DA61084B00221A62074802F086FA72
:100F70000346002B01D0FFF7F9FB00BF0837BD4641
:100F800080BD00BF00380240F00200200054004045
:100F9000A086010080B584B000AF00237B60214AA9
:100FA000204B1B6C43F0010313641E4B1B6C03F0BE
:100FB00001037B607B681C4B4FF080421A601A4B28
:100FC00042F2CF025A60184B00229A60164B6322FD
:100FD000DA60154B00221A61134B80229A61124885
:100FE00005F066F90346002B01D0FFF7BFFB07F1C0
:100FF000080300221A605A602023BB600023FB60B4
:1010000007F108031946084805F048FC0346002B81
:1010100001D0FFF7ABFB044805F0A4F900BF10377F
:10102000BD4680BD003802405803002080B58AB01C
:1010300000AF0023BB602B4A2A4B1B6C43F00053CC
:101040001364284B1B6C03F00053BB60BB68002388
:101050007B60244A234B1B6B43F001031363214B3A
:101060001B6B03F001037B607B6807F11403002214
:101070001A605A609A60DA601A6120237B61032348
:10108000BB610023FB6107F114031946164802F007
:1010900063F8164B164A1A60144801F051FB0346D8
:1010A000002B01D0FFF762FB07F10C0300221A604E
:1010B0005A600023FB6000233B6107F10C03102200
:1010C00019460A4801F0E0FB0346002B01D0FFF768
:1010D0004DFB1021054801F055FB00BF2837BD46E8
:1010E00080BD00BF003802400000024044030020E1
:1010F0000074004080B400AF00BFBD465DF8047BC3
:10110000704700BF80B586B004AF0346FB714FF057
:10111000FF33029301230193FB1D0093012300225F
:101120007821034802F0F8FA00BF0837BD4680BDB9
:10113000F002002080B586B004AF786039603B686B
:101140009BB24FF0FF32029201937B680093012320
:1011500040227821034802F0DFFA00BF0837BD467D
:1011600080BD00BFF002002080B500AFFFF7C2FFD6
:10117000642000F019FD002000F0D6F92020FFF7D0
:10118000C1FF0020FFF7BEFFB020FFF7BBFFC82064
:10119000FFF7B8FF0020FFF7B5FF1020FFF7B2FF01
:1011A0004020FFF7AFFFFF2000F0AAF9A120FFF7D2
:1011B000A9FFA620FFF7A6FFA820FFF7A3FF3F2067
:1011C000FFF7A0FFA420FFF79DFFD320FFF79AFFB2
:1011D0000020FFF797FFD520FFF794FFF020FFF7DF
:1011E00091FFD920FFF78EFF2220FFF78BFFDA2037
:1011F000FFF788FF1220FFF785FFDB20FFF782FF54
:101200002020FFF77FFF8D20FFF77CFF1420FFF7E2
:1012100079FF012000F088F9002000F00FF800F0BD
:1012200025F8054B00221A80034B00225A80024BFE
:1012300001221A7100BF80BDA007002080B582B0D6
:1012400000AF0346FB71FB79002B01D1002300E0C6
:10125000FF234FF4806219460348FFF7EFF900BF00
:101260000837BD4680BD00BFA003002080B582B016
:1012700000AF0023FB7116E0FB79503BDBB2184650
:10128000FFF740FF0020FFF73DFF1020FFF73AFF78
:10129000FB79DB01074A134480211846FFF74AFF18
:1012A000FB790133FB71FB79072BE5D900BF0837C8
:1012B000BD4680BDA003002080B483B000AF0346CC
:1012C000FB710B46BB7113467B7197F90730002BFE
:1012D0003DDBBB793F2B3AD87B79012B1AD1FA79C8
:1012E000BB79DB08D8B20346DB011344F979024627
:1012F000D2010A4419498A5C51B2BA7902F0070254
:10130000012000FA02F252B20A4352B2D1B2134A99
:10131000D1541DE0FA79BB79DB08D8B20346DB0172
:101320001344F9790246D2010A440C498A5C51B24D
:10133000BA7902F00702012000FA02F252B2D24357
:1013400052B20A4052B2D1B2044AD15400E000BFB6
:101350000C37BD465DF8047B704700BFA00300203A
:1013600090B589B000AF0446384680E80E002346A9
:10137000FB73FB7B1F2B02D9FB7B7E2B01D9002348
:1013800079E0BB68002B05D0BA68FB7B203B134497
:101390001B7800E03B78FB75394B1B881A46FB7DB8
:1013A0001344802B06DC364B5B881A467B7813444B
:1013B000402B01DD00235EE00023FB614DE07A68F5
:1013C000FB7B203B797801FB03F31946FB690B4457
:1013D0005B0013441B883B610023BB6136E03A6924
:1013E000BB6902FA03F303F40043002B13D0244B30
:1013F0001B88DAB2BB69DBB21344D8B2204B5B88DE
:10140000DAB2FB69DBB21344DBB297F8302019463D
:10141000FFF752FF17E01A4B1B88DAB2BB69DBB249
:101420001344D8B2164B5B88DAB2FB69DBB21344C3
:10143000D9B297F83030002B0CBF01230023DBB268
:101440001A46FFF739FFBB690133BB61FA7DBB69FF
:101450009A42C4D8FB690133FB617B781A46FB6969
:101460009A42ACD8064B1A88FB7D9BB213449AB2C1
:10147000034B1A80FB7B18462437BD4690BD00BF46
:10148000A007002080B586B002AFF860384680E83B
:101490000E0013E0FB6818783B7E00933B460ECBB2
:1014A000FFF75EFF03461A46FB681B789A4202D09C
:1014B000FB681B7808E0FB680133FB60FB681B7866
:1014C000002BE7D1FB681B7818461037BD4680BD5E
:1014D00080B483B000AF03460A46FB711346BB716C
:1014E000FB799AB2054B1A80BB799AB2034B5A80AA
:1014F00000BF0C37BD465DF8047B7047A007002095
:1015000080B584B000AF0346FB718123FB73FB7B86
:101510001846FFF7F7FDFB791846FFF7F3FD00BF0C
:101520001037BD4680BD00BF80B584B000AF034614
:10153000FB71FB79002B05D0AF23FB73084B012215
:101540005A7104E0AE23FB73054B00225A71FB7BFA
:101550001846FFF7D7FD00BF1037BD4680BD00BF5E
:10156000A007002080B483B000AF00237B60104A46
:101570000F4B5B6C43F4804353640D4B5B6C03F483
:1015800080437B607B6800233B60094A084B1B6CEF
:1015900043F080531364064B1B6C03F080533B6095
:1015A0003B6800BF0C37BD465DF8047B704700BF49
:1015B0000038024080B58EB000AF786007F1240398
:1015C00000221A605A609A60DA601A617B681B68B0
:1015D0008B4A93420AD07B681B688A4A934205D0A3
:1015E0007B681B68884A934240F0058100233B6278
:1015F000864A864B1B6B43F001031363834B1B6BC3
:1016000003F001033B623B6A0023FB617F4A7F4B8F
:101610005B6C43F4807353647C4B5B6C03F48073AA
:10162000FB61FB690023BB61784A784B5B6C43F438
:1016300000735364754B5B6C03F40073BB61BB694F
:1016400000237B61714A714B5B6C43F4806353648C
:101650006E4B5B6C03F480637B617B6907237B6269
:101660000323BB620023FB6207F124031946684889
:1016700001F072FD7B681B68614A93423AD10023F6
:101680003B61624A614B1B6B43F4800313635F4B06
:101690001B6B03F480033B613B695E4B5E4A1A603F
:1016A0005C4B00225A605B4B00229A60594B00222F
:1016B000DA60584B4FF480621A61564B4FF4006267
:1016C0005A61544B4FF400529A61524B4FF480725E
:1016D000DA61504B4FF400321A624E4B00225A62CC
:1016E0004C4801F02BF97B684A4A9A63494A7B6867
:1016F000936380E07B681B68424A93423BD100239E
:10170000FB60424A414B1B6B43F4800313633F4B26
:101710001B6B03F48003FB60FB68404B404A1A607C
:101720003E4B4FF000725A603C4B00229A603B4B9C
:101730000022DA60394B4FF480621A61374B4FF464
:1017400000625A61354B4FF400529A61334B4FF4AB
:101750008072DA61314B4FF400321A622F4B002253
:101760005A622E4801F0EAF87B682C4A9A632B4AA9
:101770007B6893633FE07B681B68234A93423AD1BE
:101780000023BB60214A214B1B6B43F4800313638E
:101790001E4B1B6B03F48003BB60BB68214B224ACA
:1017A0001A60204B4FF080625A601E4B00229A60F4
:1017B0001C4B0022DA601B4B4FF480621A61194BFC
:1017C0004FF400625A61174B4FF400529A61154B67
:1017D0004FF48072DA61134B4FF400321A62114BEE
:1017E00000225A620F4801F0A9F87B680D4A9A63FB
:1017F0000C4A7B68936300BF3837BD4680BD00BF8D
:101800000020014000210140002201400038024038
:1018100000000240A80700201064024008080020D1
:1018200040640240680800202864024080B58AB005
:1018300000AF786007F1140300221A605A609A60C2
:10184000DA601A617B681B68194A93422BD1002326
:101850003B61184A174B1B6C43F400331364154B60
:101860001B6C03F400333B613B690023FB60114AAE
:10187000104B1B6B43F0010313630E4B1B6B03F008
:101880000103FB60FB680C237B610223BB61002327
:10189000FB6103233B6207237B6207F114031946B4
:1018A000054801F059FC00BF2837BD4680BD00BF88
:1018B00000440040003802400000024080B58AB079
:1018C00000AF786007F1140300221A605A609A6032
:1018D000DA601A617B681B68194A93422BD1002396
:1018E0003B61184A174B1B6C43F400131364154BF0
:1018F0001B6C03F400133B613B690023FB60114A3E
:10190000104B1B6B43F0020313630E4B1B6B03F076
:101910000203FB60FB68C0237B611223BB610123D0
:10192000FB6103233B6204237B6207F11403194626
:10193000054801F011FC00BF2837BD4680BD00BF3F
:1019400000540040003802400004024080B58AB0D4
:1019500000AF786007F1140300221A605A609A60A1
:10196000DA601A617B681B68174A934227D100230B
:101970003B61164A154B1B6C43F000531364134B29
:101980001B6C03F000533B613B690023FB600F4A73
:101990000E4B1B6B43F0010313630C4B1B6B03F0EB
:1019A0000103FB60FB6810237B610323BB61002301
:1019B000FB6107F114031946054801F0CDFB00BF98
:1019C0002837BD4680BD00BF00740040003802408B
:1019D0000000024080B400AFFEE700BF80B400AF5B
:1019E000FEE700BF80B400AFFEE700BF80B400AFE9
:1019F000FEE700BF80B400AFFEE700BF80B500AFD8
:101A0000034801F033F90348FEF7F6FE00BF80BD3E
:101A100088010020B000002080B500AF024805F02A
:101A2000A7F800BF80BD00BFA802002080B500AFAE
:101A3000024801F06BFF00BF80BD00BFF002002034
:101A400080B500AF024802F0B3F800BF80BD00BF10
:101A5000F002002080B584B000AF7860114B1B68A5
:101A6000002B02D10F4B104A1A600E4B1B68FB6013
:101A70000C4B1A687B6813446A46934207D909F0F5
:101A80001FF802460C2313604FF0FF3306E0054BAE
:101A90001A687B681344034A1360FB6818461037C2
:101AA000BD4680BDC8080020F05A002080B400AFB9
:101AB000064A064BD3F8883043F47003C2F88830E6
:101AC00000BFBD465DF8047B704700BF00ED00E03D
:101AD00080B58CB000AF78600023BB6200237B62CE
:101AE0000023BB602C4A2C4B1B6C43F01003136487
:101AF000294B1B6C03F01003BB60BB6807F10C02A1
:101B000007F110031146184603F054FFFB69BB624E
:101B1000BB6A002B03D103F025FFF86204E003F059
:101B200021FF03465B00FB62FB6A1C4AA2FB032306
:101B30009B0C013B7B621A4B1A4A1A60184B40F20D
:101B4000E732DA60164A7B6A5360154B00221A614D
:101B5000134B00229A60124B00225A61104804F085
:101B6000A7FB0346002B01D0012310E00C4804F032
:101B700061FC0346002B01D0012308E000227968B4
:101B8000362000F0B3FD362000F0CCFD00231846CF
:101B90003037BD4680BD00BF0038024083DE1B43A6
:101BA000CC0800200010004080B584B000AF786001
:101BB00006F0A8FD0346012B0CD07B684FF47A7227
:101BC00002FB03F3104AA2FB03239B09184606F00D
:101BD00019F814E000F036F8B8607B68FB60FB6829
:101BE000B3F1FF3F02D0FB680133FB6000BF00F0A0
:101BF00029F80246BB68D21AFB689A42F7D300BFA5
:101C00001037BD4680BD00BFD34D621080B500AF18
:101C1000024804F07FFC00BF80BD00BFCC0800205C
:101C200080B582B000AF78607B681B68044A93423D
:101C300001D100F013F800BF0837BD4680BD00BFDA
:101C40000010004080B400AF034B1B681846BD462F
:101C50005DF8047B704700BF1409002080B400AF1A
:101C6000044B1B680133034A136000BFBD465DF897
:101C7000047B70471409002080B500AF0E4A0E4B5C
:101C80001B6843F4007313600B4A0B4B1B6843F44F
:101C900080631360084A084B1B6843F48073136029
:101CA000032000F017FD0F20FFF712FFFFF75AFC8B
:101CB0000023184680BD00BF003C024080B584B0C0
:101CC00000AF78600023FB737B68002B01D10123F8
:101CD00033E07B681B6C002B09D17868FFF76AFC46
:101CE0007B6800225A647B68002283F83C207B6872
:101CF0001B6C03F01003002B18D17B681B6C23F4C2
:101D0000885323F0020343F002027B681A64786868
:101D100000F06EFA7B6800225A647B681B6C23F02B
:101D2000030343F001027B681A6401E00123FB73A3
:101D30007B68002283F83C20FB7B18461037BD46A9
:101D400080BD00BF80B586B000AFF860B9607A6032
:101D500000233B61FB6893F83C30012B01D1022347
:101D6000E7E0FB68012283F83C20FB681B689B6866
:101D700003F00103002B18D1FB681B68FA68126896
:101D8000926842F001029A606C4B1B686C4AA2FB9D
:101D900003239A0C13465B0013443B6102E03B694A
:101DA000013B3B613B69002BF9D1FB681B689B68D9
:101DB00003F48073002B07D0FB681B68FA68126875
:101DC000926822F480729A60FB681B689B6803F03B
:101DD0000103002B00F0A080FB681B6C23F4E06380
:101DE00023F0010343F48072FB681A64FB681B68EC
:101DF0005B6803F48063002B07D0FB681B6C23F443
:101E0000405343F48052FB681A64FB681B6C03F474
:101E10008053002B06D0FB685B6C23F00602FB6846
:101E20005A6402E0FB6800225A64FB68002283F8CF
:101E30003C20444B7B61FB689B6B434ADA63FB6845
:101E40009B6B424A1A64FB689B6B414ADA64FB68ED
:101E50001B686FF022021A60FB681B68FA68126840
:101E6000526842F080625A60FB681B68FA68126828
:101E7000926842F480729A60FB68986BFB681B68FA
:101E80004C331946BA687B6800F006FE7B695B68D4
:101E900003F01F03002B2AD1FB681B682D4A9342D5
:101EA00015D0FB681B682C4A934205D1254B5B6813
:101EB00003F01F03002B0AD0FB681B68274A9342DC
:101EC00036D1204B5B6803F01F030F2B30D8FB6823
:101ED0001B689B6803F04053002B29D1FB681B68EB
:101EE000FA681268926842F080429A6020E0FB68CB
:101EF0001B68184A93421BD1FB681B689B6803F060
:101F00004053002B14D1FB681B68FA681268926872
:101F100042F080429A600BE0FB681B6C43F01002B9
:101F2000FB681A64FB685B6C43F00102FB685A644F
:101F3000002318461837BD4680BD00BF640000204E
:101F400083DE1B4300230140E9230008A524000889
:101F5000C12400080020014000210140002201406E
:101F600080B483B000AF786000BF0C37BD465DF829
:101F7000047B704780B483B000AF786000BF0C373B
:101F8000BD465DF8047B704790B484B000AF7860C4
:101F900039600023BB607B6893F83C30012B01D192
:101FA000022315E17B68012283F83C203B681B6813
:101FB000092B26D97B681A687B681B68D9683B683F
:101FC0001B689BB2184603465B0003441E3B072078
:101FD00000FA03F3DB430B40D3607B681A687B682D
:101FE0001B68D9683B6898683B681B689BB21C46B5
:101FF00023465B0023441E3B00FA03F30B43D360EC
:1020000023E07B681A687B681B6819693B681B685A
:102010009BB2184603465B000344072000FA03F313
:10202000DB430B4013617B681A687B681B68196986
:102030003B6898683B681B689BB21C4623465B0064
:10204000234400FA03F30B4313613B685B68062BE0
:1020500024D87B6819687B681B68586B3B685A6892
:1020600013469B001344053B1F2202FA03F3DB4394
:1020700003404B637B6819687B681B68586B3B683F
:102080001B689BB21C463B685A6813469B0013446E
:10209000053B04FA03F303434B634CE03B685B6886
:1020A0000C2B24D87B6819687B681B68186B3B680D
:1020B0005A6813469B001344233B1F2202FA03F382
:1020C000DB4303400B637B6819687B681B68186BF4
:1020D0003B681B689BB21C463B685A6813469B00D2
:1020E0001344233B04FA03F303430B6323E07B68AD
:1020F00019687B681B68D86A3B685A6813469B005E
:102100001344413B1F2202FA03F3DB430340CB623B
:102110007B6819687B681B68D86A3B681B689BB240
:102120001C463B685A6813469B001344413B04FA23
:1021300003F30343CB62294BFB607B681B68284A8F
:1021400093420FD13B681B68122B0BD1FB685B6875
:1021500023F40002FB685A60FB685B6843F480026A
:10216000FB685A607B681B681D4A93422BD13B6811
:102170001B681C4A934203D03B681B68112B22D179
:10218000FB685B6823F48002FB685A60FB685B684D
:1021900043F40002FB685A603B681B68114A934293
:1021A00011D1114B1B68114AA2FB03239A0C134651
:1021B0009B0013445B00BB6002E0BB68013BBB605B
:1021C000BB68002BF9D17B68002283F83C200023F8
:1021D00018461037BD4690BC704700BF0023014031
:1021E00000200140120000106400002083DE1B4329
:1021F00080B485B000AF7860794BFB60FB685B68AA
:1022000023F44032FB685A60FB685A687B685B685D
:102210001A43FB685A607B681B687A6812685268C8
:1022200022F480725A607B681B687A681268516871
:102230007A68126912020A435A607B681B687A68DE
:102240001268526822F040725A607B681B687A6894
:10225000126851687A6892680A435A607B681B6802
:102260007A681268926822F400629A607B681B6840
:102270007A68126891687A68D2680A439A607B68C3
:102280009B6A584A934222D07B681B687A6812681E
:10229000926822F070629A607B681B687A681268A4
:1022A00091687A68926A0A439A607B681B687A68C8
:1022B0001268926822F040529A607B681B687A68C4
:1022C000126891687A68D26A0A439A600FE07B6864
:1022D0001B687A681268926822F070629A607B6864
:1022E0001B687A681268926822F040529A607B6894
:1022F0001B687A681268926822F002029A607B6812
:102300001B687A68126891687A68127E52000A43E4
:102310009A607B6893F82030002B1BD07B681B6889
:102320007A681268526842F400625A607B681B68DF
:102330007A681268526822F460425A607B681B68AF
:102340007A68126851687A68526A013A52030A43FD
:102350005A6007E07B681B687A681268526822F44A
:1023600000625A607B681B687A681268D26A22F43D
:102370007002DA627B681B687A681268D16A7A68D0
:10238000D269013A12050A43DA627B681B687A68EF
:102390001268926822F400729A607B681B687A68FF
:1023A000126891687A6892F8302052020A439A6063
:1023B0007B681B687A681268926822F480629A606F
:1023C0007B681B687A68126891687A685269920221
:1023D0000A439A6000BF1437BD465DF8047B70471E
:1023E000002301400100000F80B584B000AF786089
:1023F0007B689B6BFB60FB681B6C03F05003002B3E
:102400003CD1FB681B6C43F40072FB681A64FB68E8
:102410001B689B6803F04053002B2BD1FB681B7E8D
:10242000002B27D1FB681B68DB6A03F47003002BC9
:1024300006D0FB681B689B6803F48063002B19D1EE
:10244000FB681B68FA681268526822F020025A6022
:10245000FB681B6C23F48072FB681A64FB681B6CBE
:1024600003F48053002B05D1FB681B6C43F0010281
:10247000FB681A64F868FEF7BFF90EE0FB681B6C96
:1024800003F01003002B03D0F868FFF773FD04E09E
:10249000FB689B6BDB6C7868984700BF1037BD46C4
:1024A00080BD00BF80B584B000AF78607B689B6B57
:1024B000FB60F868FFF754FD00BF1037BD4680BDD4
:1024C00080B584B000AF78607B689B6BFB60FB6875
:1024D00040221A64FB685B6C43F00402FB685A6498
:1024E000F868FFF747FD00BF1037BD4680BD00BF4D
:1024F00080B485B000AF786039607B6893F83C3079
:10250000012B01D1022331E07B68012283F83C20BA
:10251000194BFB60FB685B6823F01F02FB685A6085
:10252000FB685A683B681B681A43FB685A60FB6883
:102530005B6823F44042FB685A60FB685A683B685A
:102540005B681A43FB685A60FB685B6823F470623F
:10255000FB685A60FB685A683B689B681A43FB68D3
:102560005A607B68002283F83C2000231846143709
:10257000BD465DF8047B70470023014080B485B000
:1025800000AF78607B6803F00703FB600C4BDB68EF
:10259000BB60BA684FF6FF031340BB60FB681A02CA
:1025A000BB68134343F0BF6343F40033BB60044A8A
:1025B000BB68D36000BF1437BD465DF8047B70472D
:1025C00000ED00E080B400AF044BDB6803F4E0638F
:1025D0001B0A1846BD465DF8047B704700ED00E01D
:1025E00080B483B000AF0346FB7197F90730002B2E
:1025F0000BDB094997F907305B09FA7902F01F02F2
:10260000012000FA02F241F8232000BF0C37BD463A
:102610005DF8047B704700BF00E100E080B483B048
:1026200000AF03463960FB7197F90730002B0ADBD6
:102630000D4997F907303A68D2B21201D2B20B4471
:1026400083F800230AE00949FB7903F00F03043BF8
:102650003A68D2B21201D2B20B441A7600BF0C37DC
:10266000BD465DF8047B704700E100E000ED00E04E
:1026700080B489B000AFF860B9607A60FB6803F09D
:102680000703FB61FB69C3F10703042B28BF042385
:10269000BB61FB690433062B02D9FB69033B00E0F5
:1026A00000237B610122BB6902FA03F35A1EBB6857
:1026B0001A407B699A4001217B6901FA03F3591E94
:1026C0007B680B40134318462437BD465DF8047BF6
:1026D000704700BF80B582B000AF78607868FFF7C0
:1026E0004DFF00BF0837BD4680BD00BF80B586B036
:1026F00000AF0346B9607A60FB7300237B61FFF78C
:1027000061FF78617A68B9687869FFF7B1FF0246BE
:1027100097F90F3011461846FFF780FF00BF1837B2
:10272000BD4680BD80B582B000AF0346FB7197F90E
:1027300007301846FFF754FF00BF0837BD4680BD7D
:1027400080B582B000AF78607B68002B01D1012397
:1027500014E07B681B79DBB2002B05D17B6800227B
:102760005A717868FFF7F2F87B6802221A717B6869
:1027700000221A617B6801221A710023184608376B
:10278000BD4680BD80B483B000AF786039607B689F
:10279000002B01D1012347E07B685B79012B01D13C
:1027A000022341E07B6801225A717B6802221A7180
:1027B0007B681B687A68126811683A6802F0100238
:1027C000012000FA02F20A431A603B68002B0FD185
:1027D0007B681B681B6803F03C033C2B1DD17B68A6
:1027E0001B687A681268526842F001025A6014E06D
:1027F0007B681B681B6803F470123B6803F01003CE
:102800003C2101FA03F39A4207D17B681B687A687E
:102810001268526842F002025A607B6801221A7103
:102820007B6800225A71002318460C37BD465DF8BC
:10283000047B704780B487B000AFF860B9607A60FD
:102840003B6000237B61FB68002B01D1012315E075
:10285000FB681B687B61BB68002B05D17A697B68CC
:10286000134408337B6104E07A697B6813441433B2
:102870007B617B691A463B681360002318461C374E
:10288000BD465DF8047B704780B489B000AFF86046
:10289000B9607A600023FB77FB68002B02D0BB682D
:1028A000002B01D1012342E0FB685B79012B01D1B0
:1028B00002233CE0FB6801225A71FB6802221A7174
:1028C000FB681B681B68BB617B6803F0100340F664
:1028D000FE7202FA03F3DB43BA691340BB61BB68C3
:1028E0001A68BB685B6813437B617B6803F0100365
:1028F0007A6902FA03F3BA691343BB61FB681B6888
:10290000BA691A60FB681B68FA68126811687A680D
:1029100002F01002C02000FA02F2D2430A401A600C
:10292000FB6801221A71FB6800225A71FB7F18466E
:102930002437BD465DF8047B704700BF80B586B084
:1029400000AF786000237B61FFF77CF938617B681A
:10295000002B01D1012399E07B68022283F8352006
:102960007B68002283F834207B681B687A681268D1
:10297000126822F001021A600FE0FFF763F90246C5
:102980003B69D31A052B08D97B6820225A657B68DE
:10299000032283F83520032378E07B681B681B68DB
:1029A00003F00103002BE8D17B681B681B687B6187
:1029B0007A69384B13407B617B685A687B689B68F7
:1029C0001A437B68DB681A437B681B691A437B6880
:1029D0005B691A437B689B691A437B68DB691A430E
:1029E0007B681B6A13437A6913437B617B685B6A6C
:1029F000042B07D17B68DA6A7B681B6B13437A6907
:102A000013437B617B681B687A691A607B681B686B
:102A10005B697B617B6923F007037B617B685B6A91
:102A20007A6913437B617B685B6A042B17D17B68EF
:102A30009B6A7A6913437B617B68DB6A002B0ED04B
:102A4000786800F00FFB0346002B08D07B6840221B
:102A50005A657B68012283F83520012316E07B68E4
:102A60001B687A695A61786800F0C6FA0346FB6011
:102A70007B68DB6D3F229A40FB689A607B6800228E
:102A80005A657B68012283F83520002318461837E1
:102A9000BD4680BD3F8010F080B586B000AFF860C5
:102AA000B9607A603B600023FB75FB689B6D3B61FE
:102AB000FB6893F83430012B01D1022340E0FB681E
:102AC000012283F83420FB6893F83530DBB2012B08
:102AD0002FD1FB68022283F83520FB6800225A655B
:102AE0003B687A68B968F86800F058FAFB68DB6DF3
:102AF0003F229A403B699A60FB681B68FA6812683B
:102B0000126842F016021A60FB681B6C002B07D09B
:102B1000FB681B68FA681268126842F008021A60C3
:102B2000FB681B68FA681268126842F001021A60BA
:102B300005E0FB68002283F834200223FB75FB7D4F
:102B400018461837BD4680BD80B584B000AF7860A8
:102B50007B689B6DFB60FFF775F8B8607B6893F846
:102B60003530DBB2022B08D07B6880225A657B6847
:102B7000002283F83420012352E07B681B687A68C6
:102B80001268126822F016021A607B681B687A6865
:102B90001268526922F080025A617B681B6C002B1C
:102BA00003D17B689B6C002B07D07B681B687A681D
:102BB0001268126822F008021A607B681B687A6843
:102BC0001268126822F001021A6013E0FFF73AF867
:102BD0000246BB68D31A052B0CD97B6820225A65A4
:102BE0007B68032283F835207B68002283F8342039
:102BF000032315E07B681B681B6803F00103002BAF
:102C0000E4D17B68DB6D3F229A40FB689A607B6869
:102C1000012283F835207B68002283F834200023CA
:102C200018461037BD4680BD80B483B000AF7860D1
:102C30007B6893F83530DBB2022B04D07B688022AE
:102C40005A6501230CE07B68052283F835207B68F8
:102C50001B687A681268126822F001021A60002369
:102C600018460C37BD465DF8047B704780B586B0CA
:102C700000AF78600023BB60924B1B68924AA2FBB6
:102C800003239B0A7B617B689B6D3B613B691B68EF
:102C9000FB607B68DB6D08229A40FB681340002BC9
:102CA0001AD07B681B681B6803F00403002B13D049
:102CB0007B681B687A681268126822F004021A6046
:102CC0007B68DB6D08229A403B699A607B685B6D8C
:102CD00043F001027B685A657B68DB6D01229A40F4
:102CE000FB681340002B12D07B681B685B6903F004
:102CF0008003002B0BD07B68DB6D01229A403B697F
:102D00009A607B685B6D43F002027B685A657B6862
:102D1000DB6D04229A40FB681340002B12D07B68C5
:102D20001B681B6803F00203002B0BD07B68DB6D74
:102D300004229A403B699A607B685B6D43F0040211
:102D40007B685A657B68DB6D10229A40FB681340F4
:102D5000002B43D07B681B681B6803F00803002B23
:102D60003CD07B68DB6D10229A403B699A607B689F
:102D70001B681B6803F48023002B18D07B681B683A
:102D80001B6803F40023002B08D17B681B6C002B0D
:102D900024D07B681B6C786898471FE07B689B6C2D
:102DA000002B1BD07B689B6C7868984716E07B688B
:102DB0001B681B6803F48073002B07D17B681B68BA
:102DC0007A681268126822F008021A607B681B6C2D
:102DD000002B03D07B681B6C786898477B68DB6DA1
:102DE00020229A40FB681340002B00F08E807B6805
:102DF0001B681B6803F01003002B00F086807B68C3
:102E0000DB6D20229A403B699A607B6893F83530ED
:102E1000DBB2052B36D17B681B687A6812681268B2
:102E200022F016021A607B681B687A681268526981
:102E300022F080025A617B681B6C002B03D17B68F7
:102E40009B6C002B07D07B681B687A68126812683D
:102E500022F008021A607B68DB6D3F229A403B69D2
:102E60009A607B68012283F835207B68002283F812
:102E700034207B681B6D002B7DD07B681B6D7868D0
:102E8000984778E07B681B681B6803F48023002B5D
:102E90001CD07B681B681B6803F40023002B08D13F
:102EA0007B685B6C002B30D07B685B6C78689847E4
:102EB0002BE07B68DB6B002B27D07B68DB6B7868B3
:102EC000984722E064000020B5814E1B7B681B6898
:102ED0001B6803F48073002B0FD17B681B687A6832
:102EE0001268126822F010021A607B68012283F8CF
:102EF00035207B68002283F834207B68DB6B002B55
:102F000003D07B68DB6B786898477B685B6D002B30
:102F100032D07B685B6D03F00103002B22D07B680D
:102F2000052283F835207B681B687A68126812686E
:102F300022F001021A60BB680133BB607A699342D8
:102F400007D87B681B681B6803F00103002BF2D1D4
:102F500000E000BF7B68012283F835207B680022F7
:102F600083F834207B68DB6C002B05D07B68DB6C3E
:102F70007868984700E000BF1837BD4680BD00BFA5
:102F800080B483B000AF78607B6893F83530DBB2F3
:102F900018460C37BD465DF8047B704780B485B099
:102FA00000AFF860B9607A603B60FB681B68FA6844
:102FB0001268126822F480221A60FB681B683A6863
:102FC0005A60FB689B68402B08D1FB681B687A68D5
:102FD0009A60FB681B68BA68DA6007E0FB681B68E8
:102FE000BA689A60FB681B687A68DA6000BF1437B9
:102FF000BD465DF8047B704780B485B000AF786053
:103000007B681B68DBB2103B144AA2FB03231B093D
:10301000FB60134AFB6813441B781A467B68DA6529
:10302000FB68032B09D97B681B6823F47F7323F0AB
:1030300003031A1D7B689A6507E07B681B6823F40D
:103040007F7323F003037A6893657B689B6D184652
:103050001437BD465DF8047B704700BFABAAAAAA2F
:103060009CBB000880B485B000AF78600023FB7380
:103070007B689B6ABB607B689B69002B1FD1BB6828
:10308000032B55D801A252F823F000BF9D30000851
:10309000AF3000089D300008313100087B68DB6AE2
:1030A00003F08073002B45D00123FB7342E07B6863
:1030B000DB6AB3F1C07F3FD10123FB733CE07B6847
:1030C0009B69B3F5005F21D1BB68032B36D801A201
:1030D00052F823F0E5300008EB300008E530000836
:1030E000FD3000080123FB732FE07B68DB6A03F0EF
:1030F0008073002B24D00123FB7321E07B68DB6A03
:10310000B3F1C07F1ED10123FB731BE0BB68022B10
:1031100002D9032B03D018E00123FB7315E07B6871
:10312000DB6A03F08073002B0ED00123FB730BE0EE
:1031300000BF0AE000BF08E000BF06E000BF04E0F7
:1031400000BF02E000BF00E000BFFB7B1846143761
:10315000BD465DF8047B704780B489B000AF7860ED
:10316000396000237B6100233B610023BB610023A6
:10317000FB6165E10122FB6902FA03F37B613B68B5
:103180001A687B6913403B613A697B699A4240F057
:1031900054813B685B6803F00303012B05D03B6857
:1031A0005B6803F00303022B30D17B689B68BB6133
:1031B000FB695B00032202FA03F3DB43BA691340A5
:1031C000BB613B68DA68FB695B0002FA03F3BA692A
:1031D0001343BB617B68BA699A607B685B68BB61BB
:1031E0000122FB6902FA03F3DB43BA691340BB61B6
:1031F0003B685B681B0903F00102FB6902FA03F3F9
:10320000BA691343BB617B68BA695A603B685B6803
:1032100003F00303032B17D07B68DB68BB61FB69FA
:103220005B00032202FA03F3DB43BA691340BB617C
:103230003B689A68FB695B0002FA03F3BA691343BF
:10324000BB617B68BA69DA603B685B6803F00303C3
:10325000022B23D1FB69DA087B68083253F822304D
:10326000BB61FB6903F007039B000F2202FA03F323
:10327000DB43BA691340BB613B681A69FB6903F021
:1032800007039B0002FA03F3BA691343BB61FB69AE
:10329000DA087B680832B96943F822107B681B683A
:1032A000BB61FB695B00032202FA03F3DB43BA69EB
:1032B0001340BB613B685B6803F00302FB695B0082
:1032C00002FA03F3BA691343BB617B68BA691A60F7
:1032D0003B685B6803F44033002B00F0AE800023B2
:1032E000FB605C4A5B4B5B6C43F480435364594B1B
:1032F0005B6C03F48043FB60FB68574AFB699B08E7
:10330000023352F82330BB61FB6903F003039B00D7
:103310000F2202FA03F3DB43BA691340BB617B68F7
:103320004E4A934225D07B684D4A93421FD07B681A
:103330004C4A934219D07B684B4A934213D07B6826
:103340004A4A93420DD07B68494A934207D07B6832
:10335000484A934201D106230CE007230AE00523E3
:1033600008E0042306E0032304E0022302E0012333
:1033700000E00023FA6902F0030292009340BA6968
:103380001343BB613449FB699B080233BA6941F8B6
:103390002320394B9B68BB613B69DB43BA6913400F
:1033A000BB613B685B6803F48013002B03D0BA69F0
:1033B0003B691343BB61304ABB6993602E4BDB68AA
:1033C000BB613B69DB43BA691340BB613B685B6827
:1033D00003F40013002B03D0BA693B691343BB61AC
:1033E000254ABB69D360244B5B68BB613B69DB4307
:1033F000BA691340BB613B685B6803F40033002B80
:1034000003D0BA693B691343BB611B4ABB69536074
:10341000194B1B68BB613B69DB43BA691340BB6155
:103420003B685B6803F48033002B03D0BA693B69C7
:103430001343BB61104ABB691360FB690133FB6135
:10344000FB690F2B7FF696AE00BF2437BD465DF8B3
:10345000047B704700380240003801400000024001
:103460000004024000080240000C0240001002402C
:103470000014024000180240003C014090B585B0A5
:1034800000AF78607B68002B01D101231FE17B68CE
:1034900093F83D30DBB2002B06D17B68002283F825
:1034A0003C207868FEF70AFA7B68242283F83D20E6
:1034B0007B681B687A681268126822F001021A6041
:1034C0007B681B687A681268126842F400421A60CE
:1034D0007B681B687A681268126822F400421A60DE
:1034E00002F040FAF8607B685B687B4A934207D839
:1034F000FB687A4A934294BF01230023DBB206E0C3
:10350000FB68774A934294BF01230023DBB2002B70
:1035100001D00123DBE0FB68724AA2FB03239B0C72
:10352000BB607B681B687A681268526822F03F01B2
:10353000BA680A435A607B681A687B681B681B6A12
:1035400023F03F017B685B686348834202D8BB6815
:10355000013309E0BB684FF4967000FB03F3624847
:10356000A0FB03039B0901330B4313627B681868BC
:103570007B681B68DB6923F44F4222F0FF027B6803
:103580005B6855498B420DD8FB68591E7B685B68A8
:103590005B00B1FBF3F30133C3F30B03042B38BF20
:1035A00004234FE07B689B68002B11D1FB685C1EF5
:1035B0007B6859680B465B000B44B4FBF3F30133A3
:1035C000C3F30B03002B0CBF01230023DBB212E07B
:1035D000FB685C1E7B6859680B469B000B44990096
:1035E0000B44B4FBF3F30133C3F30B03002B0CBF09
:1035F00001230023DBB2002B01D0012322E07B68F2
:103600009B68002B0ED1FB685C1E7B6859680B46DB
:103610005B000B44B4FBF3F30133C3F30B0343F43C
:1036200000430FE0FB685C1E7B6859680B469B00FB
:103630000B4499000B44B4FBF3F30133C3F30B03C6
:1036400043F440431343C3617B681B687A68126884
:10365000126822F0C0017A68D0697A68126A02435F
:103660000A431A607B681A687B681B689B6823F4AE
:10367000034323F0FF03796808697968C968014347
:103680000B4393607B681B687A681268D26822F0EB
:10369000FF017A6850697A68926902430A43DA60E6
:1036A0007B681B687A681268126842F001021A602F
:1036B0007B6800221A647B68202283F83D207B68A7
:1036C00000221A637B68002283F83E2000231846FC
:1036D0001437BD4690BD00BFA08601007F841E0048
:1036E000FF083D0083DE1B43D34D621080B483B0DE
:1036F00000AF78607B681B685B6903F08003002B78
:1037000003D07B681B6800221A6100BF0C37BD46DE
:103710005DF8047B704700BF80B588B002AFF860E9
:10372000084611461A4603467B810B463B811346E9
:10373000FB80FEF787FA7861FB6893F83D30DBB2D7
:10374000202B40F0D9807B690093192301226D4919
:10375000F86801F0EFFD0346002B01D00223CCE016
:10376000FB6893F83C30012B01D10223C5E0FB68D4
:10377000012283F83C20FB681B681B6803F00103EF
:10378000002B07D1FB681B68FA681268126842F0C8
:1037900001021A60FB681B68FA681268126822F45A
:1037A00000621A60FB68212283F83D20FB684022FA
:1037B00083F83E20FB6800221A64FB683A6A5A626A
:1037C000FB68BA8C5A85FB685B8D9AB2FB681A85D8
:1037D000FB684D4ADA62F8883A8979897B690193F6
:1037E000BB6A00930346F86801F06AFC0346002BAD
:1037F00052D0012381E07A69B96AF86801F0B4FE19
:103800000346002B0DD0FB681B6C042B07D1FB6813
:103810001B68FA681268126842F400721A60012389
:103820006BE0FB681B68FA68526A12781A61FB68E1
:103830005B6A5A1CFB685A62FB681B8D013B9AB29B
:10384000FB681A85FB685B8D9BB2013B9AB2FB68F3
:103850005A85FB681B685B6903F00403002B1BD0CF
:10386000FB681B8D002B17D0FB681B68FA68526A37
:1038700012781A61FB685B6A5A1CFB685A62FB6823
:103880001B8D013B9AB2FB681A85FB685B8D9BB26E
:10389000013B9AB2FB685A85FB681B8D002BAAD1AD
:1038A0007A69B96AF86801F0A7FE0346002B0DD0CB
:1038B000FB681B6C042B07D1FB681B68FA68126855
:1038C000126842F400721A60012316E0FB681B685C
:1038D000FA681268126842F400721A60FB682022CB
:1038E00083F83D20FB68002283F83E20FB6800221D
:1038F00083F83C20002300E0022318461837BD4619
:1039000080BD00BF020010000000FFFF80B588B03E
:1039100000AF78600023BB617B681B685B687B61DC
:103920007B68DB6A3B617B6893F83E30FB737B68A6
:1039300093F83D30BB73FB7B102B03D0FB7B402BFC
:1039400040F0AF807B681B689B69BB617B681B682C
:103950005B69FB61FB6903F00103002B0DD13B693F
:10396000B3F52A0F03D03B69B3F12A4F01D10123EC
:1039700000E00023012B00F01281FB6903F001033A
:10398000002B0BD07B6903F40073002B06D0786802
:1039900001F0DAFE786800F07DFD81E0FB6903F05C
:1039A0000803002B08D07B6903F40073002B03D0BD
:1039B000786800F0F1FD73E0FB6903F00203002B6F
:1039C00008D07B6903F40073002B03D0786800F003
:1039D0000DFE65E0BB6903F00403002B35D07B6866
:1039E0001B685B6803F40063002B40F0DA80FB691E
:1039F00003F08003002B0DD07B6903F48063002B60
:103A000008D0FB6903F00403002B03D1786800F0B1
:103A1000D7F945E0FB6903F00403002B00F0C180F7
:103A20007B6903F40073002B00F0BB80BB7B212B70
:103A300003D1786800F060FAB3E0FB7B402B40F0E4
:103A4000B080786800F0CEFAABE07B681B685B68FA
:103A500003F40063002B40F0A480FB6903F04003F3
:103A6000002B0DD07B6903F48063002B08D0FB6929
:103A700003F00403002B03D1786800F04DFB0FE046
:103A8000FB6903F00403002B00F08B807B6903F4D7
:103A90000073002B00F08580786800F005FC80E062
:103AA0007FE07B681B6C002B04D07B681B685B6924
:103AB000FB6107E07B681B689B69BB617B681B68D7
:103AC0005B69FB61FB6903F00203002B11D07B698A
:103AD00003F40073002B0CD07B681B6C002B03D00D
:103AE0007B681B689B69BB61B969786800F0CCFF93
:103AF0005AE0FB6903F01003002B08D07B6903F444
:103B00000073002B03D0786801F006F84CE0BB7B13
:103B1000212B02D0BB7B292B20D1FB6903F0800332
:103B2000002B0DD07B6903F48063002B08D0FB6968
:103B300003F00403002B03D1786800F0E5FE32E0C7
:103B4000FB6903F00403002B2DD07B6903F40073A1
:103B5000002B28D0786800F015FF24E0FB6903F003
:103B60004003002B0DD07B6903F48063002B08D049
:103B7000FB6903F00403002B03D1786800F024FFF5
:103B800012E0FB6903F00403002B0DD07B6903F402
:103B90000073002B08D0786800F054FF04E000BFE9
:103BA00002E000BF00E000BF2037BD4680BD00BF7F
:103BB00080B58AB000AF78607B681B685B693B6248
:103BC0007B681B685B68FB6100237B627B6893F802
:103BD0003E30FB763B6A03F48073002B0DD0FB690B
:103BE00003F48073002B08D07B6A43F001037B62EF
:103BF0007B681B686FF480725A613B6A03F4007340
:103C0000002B0DD0FB6903F48073002B08D07B6A76
:103C100043F002037B627B681B686FF400725A6199
:103C20003B6A03F48063002B3ED0FB6903F480738E
:103C3000002B39D0FB7EBB767B685B8D9BB27B61B2
:103C40007B6893F83D30FB747B681B6BFB60BB7E2D
:103C5000202B12D17B69002B0FD1FB7C212B08D0AC
:103C6000FB7C292B05D0FB7C282B06D1FB68212B64
:103C700003D1786801F080F816E07B681B686FF468
:103C800080625A617B6A43F004037B62FB7E102BE7
:103C900002D0FB7E402B07D17B681B687A681268D4
:103CA000126842F400721A603B6A03F40063002B4E
:103CB0000DD0FB6903F48073002B08D07B6A43F0BE
:103CC00008037B627B681B686FF400625A617B6A41
:103CD000002B08D07B681A6C7B6A1A437B681A64D5
:103CE000786801F0BDF800BF2837BD4680BD00BF31
:103CF00080B483B000AF786000BF0C37BD465DF87C
:103D0000047B704780B483B000AF786000BF0C378D
:103D1000BD465DF8047B704780B483B000AF786027
:103D200000BF0C37BD465DF8047B704780B483B09C
:103D300000AF786000BF0C37BD465DF8047B70476C
:103D400080B483B000AF78600B46FB7013463B80B5
:103D500000BF0C37BD465DF8047B704780B483B06C
:103D600000AF786000BF0C37BD465DF8047B70473C
:103D700080B483B000AF786000BF0C37BD465DF8FB
:103D8000047B704780B483B000AF786000BF0C370D
:103D9000BD465DF8047B704780B483B000AF7860A7
:103DA00000BF0C37BD465DF8047B704780B483B01C
:103DB00000AF786000BF0C37BD465DF8047B7047EC
:103DC00080B584B000AF78607B6893F83D30FB73BA
:103DD0007B6893F83E30BB737B68DB6ABB607B68B3
:103DE0001B8D002B50D1FB7B212B4DD1BB68082BA9
:103DF0001DD0BB68202B1AD0BB6813F5803F16D0AE
:103E00007B681B687A681268526822F4E0625A6024
:103E10007B6811221A637B68002283F83E207B684E
:103E2000202283F83D207868FFF762FF60E07B681E
:103E30001B687A681268526822F4E0625A607B68F4
:103E40001B687A681268126842F400721A607B6814
:103E500000221A637B68202283F83D207B6893F858
:103E60003E30DBB2402B07D17B68002283F83E2036
:103E70007868FFF77DFF3BE07B68002283F83E20F7
:103E80007868FFF735FF33E0FB7B212B05D0BB7B48
:103E9000402B2DD1FB7B222B2AD17B685B8D9BB2E3
:103EA000002B08D17B681B687A681268526822F47C
:103EB00080625A601CE07B6893F83E30DBB2402B96
:103EC00003D1786800F08EF812E07B681B687A688E
:103ED000526A12781A617B685B6A5A1C7B685A6264
:103EE0007B685B8D9BB2013B9AB27B685A85FFE78A
:103EF00000BF1037BD4680BD80B584B000AF78608C
:103F00007B68DB6AFB607B6893F83D30DBB2212B7A
:103F100064D17B685B8D9BB2002B12D07B681B68E1
:103F20007A68526A12781A617B685B6A5A1C7B68ED
:103F30005A627B685B8D9BB2013B9AB27B685A8563
:103F40004CE0FB68082B1DD0FB68202B1AD0FB68C7
:103F500013F5803F16D07B681B687A681268526838
:103F600022F4E0625A607B6811221A637B680022A7
:103F700083F83E207B68202283F83D207868FFF795
:103F8000B7FE2BE07B681B687A681268526822F4DF
:103F9000E0625A607B681B687A681268126842F4B3
:103FA00000721A607B6800221A637B68202283F803
:103FB0003D207B6893F83E30DBB2402B07D17B6815
:103FC000002283F83E207868FFF7D2FE06E07B6887
:103FD000002283F83E207868FFF78AFE00BF103782
:103FE000BD4680BD80B584B000AF78607B6893F833
:103FF0003D30FB737B681B6D002B1FD17B68DB6C36
:10400000012B0BD17B681B687A68926CD2B21A6163
:104010007B681B6D9A1C7B681A6579E07B681B685E
:104020007A68926C92B202F47F421212D2B21A6192
:104030007B681B6D5A1C7B681A6569E07B681B6D89
:10404000012B0BD17B681B687A68926CD2B21A6123
:104050007B681B6D5A1C7B681A6559E07B681B6D79
:10406000022B52D1FB7B222B0DD17B681B687A6817
:104070001268126842F480721A607B681B6D5A1CC9
:104080007B681A6544E07B685B8D9BB2002B15D082
:10409000FB7B212B12D17B681B687A68526A1278ED
:1040A0001A617B685B6A5A1C7B685A627B685B8D0D
:1040B0009BB2013B9AB27B685A8529E07B685B8D95
:1040C0009BB2002B24D1FB7B212B21D17B681B6869
:1040D0007A681268526822F4E0625A607B681B6852
:1040E0007A681268126842F400721A607B680022D3
:1040F0001A637B68202283F83D207B68002283F8C6
:104100003E207868FFF734FE02E07868FFF7EEFAA9
:1041100000BF1037BD4680BD80B584B000AF786069
:104120007B6893F83D30DBB2222B40F0B9807B688E
:10413000DB6AFB607B685B8D9BB2BB60BB68032B5B
:1041400021D97B685B6A7A6812681269D2B21A70E8
:104150007B685B6A5A1C7B685A627B685B8D9BB28A
:10416000013B9AB27B685A857B685B8D9BB2032BBF
:1041700040F096807B681B687A681268526822F467
:1041800080625A608CE07B68DB6A022B7FD0BB6860
:10419000012B02D0BB68002B79D1786801F074FA4A
:1041A0000346002B4CD17B681B687A681268126842
:1041B00022F480621A607B681B687A681268526811
:1041C00022F4E0625A607B685B6A7A68126812695E
:1041D000D2B21A707B685B6A5A1C7B685A627B6831
:1041E0005B8D9BB2013B9AB27B685A857B6820222B
:1041F00083F83D207B6893F83E30DBB2402B0AD138
:104200007B68002283F83E207B6800221A6378686E
:10421000FFF7B8FD44E07B68002283F83E20FB688E
:10422000082B02D0FB68202B03D17B6800221A6385
:1042300002E07B6812221A637868FFF763FD2FE0C3
:104240007B681B687A681268526822F4E0625A60E0
:104250007B685B6A7A6812681269D2B21A707B68EE
:104260005B6A5A1C7B685A627B685B8D9BB2013B20
:104270009AB27B685A857B68202283F83D207B6850
:10428000002283F83E207868FFF786FD08E07B680F
:104290001B687A681268526822F480625A60FFE7ED
:1042A00000BF1037BD4680BD80B584B000AF7860D8
:1042B0007B68DB6AFB607B685B8D9BB2042B1BD148
:1042C0007B681B687A681268526822F480625A60C0
:1042D0007B685B6A7A6812681269D2B21A707B686E
:1042E0005B6A5A1C7B685A627B685B8D9BB2013BA0
:1042F0009AB27B685A85C8E07B685B8D9BB2032BC2
:1043000029D17B681B687A681268526822F480623F
:104310005A60FB68042B0AD0FB68022B07D07B682D
:104320001B687A681268126822F480621A607B68DF
:104330005B6A7A6812681269D2B21A707B685B6A2B
:104340005A1C7B685A627B685B8D9BB2013B9AB2B8
:104350007B685A8599E07B685B8D9BB2022B40F0AD
:104360008180FB68012B02D0FB68102B08D17B6891
:104370001B687A681268126822F480621A6019E079
:10438000FB68042B02D0FB68022B08D17B681B68FA
:104390007A681268126842F480621A600AE0FB6868
:1043A000102B07D07B681B687A681268126842F489
:1043B00000721A607B685B6A7A6812681269D2B20E
:1043C0001A707B685B6A5A1C7B685A627B685B8DDB
:1043D0009BB2013B9AB27B685A857B685B6A7A68BC
:1043E00012681269D2B21A707B685B6A5A1C7B68C9
:1043F0005A627B685B8D9BB2013B9AB27B685A859F
:104400007B681B687A681268526822F440725A60AE
:104410007B68202283F83D207B6893F83E30DBB236
:10442000402B0AD17B68002283F83E207B68002263
:104430001A637868FFF7A6FC27E07B68002283F800
:104440003E20FB68082B02D0FB68202B03D17B6841
:1044500000221A6302E07B6812221A637868FFF771
:1044600051FC12E07B685B6A7A6812681269D2B20A
:104470001A707B685B6A5A1C7B685A627B685B8D2A
:104480009BB2013B9AB27B685A8500BF1037BD468C
:1044900080BD00BF80B483B000AF78607B6893F8C4
:1044A0003E30DBB2402B16D17B681B6D002B08D150
:1044B0007B681B687A68526CD2B202F0FE021A6105
:1044C00064E07B681B687A68526CD2B242F00102E9
:1044D000D2B21A615AE07B681B69B3F5804F32D1C2
:1044E0007B6893F83D30DBB2212B08D17B681B68D9
:1044F0007A68526CD2B202F0FE021A6108E07B6860
:104500001B687A68526CD2B242F00102D2B21A61D0
:104510007B685B6B002B04D07B685B6BDB6B002BD9
:1045200008D17B689B6B002B30D07B689B6BDB6B6F
:10453000002B2BD07B681B687A681268526842F4A3
:1045400000625A6022E07B681B6D002B0DD17B68F6
:104550001B687A68526C92B202F44072D211D2B2E5
:1045600062F00F02D2B21A6110E07B681B6D012B62
:104570000CD17B681B687A68526C92B202F440726C
:10458000D211D2B262F00E02D2B21A6100BF0C3761
:10459000BD465DF8047B704780B483B000AF78609F
:1045A0007B681B687A68526CD2B21A617B685B6B5D
:1045B000002B04D07B685B6BDB6B002B08D17B6826
:1045C0009B6B002B0CD07B689B6BDB6B002B07D0AD
:1045D0007B681B687A681268526842F400625A600D
:1045E00000BF0C37BD465DF8047B704780B491B0C6
:1045F00000AF78607B6893F83E3087F83F307B6887
:10460000DB6ABB637B681B6B7B637B6893F83D3025
:10461000DBB2222B40F066817B681B6D002B0FD133
:1046200097F83F30402B0BD100233B637B681B681E
:104630005B693B637B681B689B693B633B6B5DE12C
:104640007B681B6D002B1DD17B681B69B3F5404F48
:1046500018D10023FB627B681B685B69FB627B6887
:104660001B689B69FB62FB6A7B681B687A6812683F
:10467000126842F480721A607B681B6D5A1C7B685A
:104680001A653BE17B685B8D9BB2002B13D1002345
:10469000BB627B681B685B69BB627B681B689B694C
:1046A000BB62BB6A7B681B687A681268126842F456
:1046B00000721A6012E17B685B8D9BB2012B40F0A7
:1046C0008980BB6B13F5803F36D17B681B687A68A5
:1046D0001268126822F480621A607B681B685B684B
:1046E00003F40063002B13D07B681B687A681268A0
:1046F000126822F480621A6000237B627B681B6868
:104700005B697B627B681B689B697B627B6AE5E017
:1047100000233B627B681B685B693B627B681B68AC
:104720009B693B623B6A7B681B687A681268126807
:1047300042F400721A60D1E0BB6B082B2ED0BB6B29
:10474000202B2BD07B6B122B02D1BB6B012B25D1E5
:10475000BB6B042B0ED0BB6B022B0BD0BB6B102B97
:1047600008D07B681B687A681268126822F480623D
:104770001A6007E07B681B687A681268126842F466
:1047800080621A600023FB617B681B685B69FB61C8
:104790007B681B689B69FB61FB699FE07B681B680A
:1047A0007A681268126822F480621A600023BB6182
:1047B0007B681B685B69BB617B681B689B69BB612D
:1047C000BB697B681B687A681268126842F40072E1
:1047D0001A6083E07B685B8D9BB2022B4CD1BB6B74
:1047E000042B16D0BB6B022B13D0BB6B102B10D03D
:1047F0007B681B687A681268126822F480621A600B
:104800007B681B687A681268126842F400621A605A
:1048100007E07B681B687A681268126842F480625D
:104820001A607B681B685B6803F40063002B17D079
:10483000BB6B13F5803F0BD0BB6B012B08D0BB6B60
:10484000082B05D0BB6B102B02D0BB6B202B07D1E4
:104850007B681B687A681268526842F480525A601A
:1048600000237B617B681B685B697B617B681B68DD
:104870009B697B617B6931E07B681B687A681268A1
:10488000126842F480621A607B681B685B6803F4FC
:104890000063002B17D0BB6B13F5803F0BD0BB6BB5
:1048A000012B08D0BB6B082B05D0BB6B102B02D0A3
:1048B000BB6B202B07D17B681B687A681268526833
:1048C00042F480525A6000233B617B681B685B693D
:1048D0003B617B681B689B693B613B697B6800228D
:1048E0001A650BE00023FB607B681B685B69FB605B
:1048F0007B681B689B69FB60FB68FFE700BF443770
:10490000BD465DF8047B704780B584B000AF786029
:104910007B6893F83D30FB737B685B8D9BB2002B0B
:104920002BD07B681B687A68526A12781A617B68A0
:104930005B6A5A1C7B685A627B685B8D9BB2013B49
:104940009AB27B685A857B685B8D9BB2002B14D131
:10495000FB7B292B11D17B681B687A68126852682F
:1049600022F480625A607B6821221A637B682822C5
:1049700083F83D207868FFF7CFF900BF1037BD46B8
:1049800080BD00BF80B483B000AF78607B685B8D72
:104990009BB2002B11D07B681B687A68526A127830
:1049A0001A617B685B6A5A1C7B685A627B685B8D04
:1049B0009BB2013B9AB27B685A8500BF0C37BD465B
:1049C0005DF8047B704700BF80B584B000AF7860AD
:1049D0007B6893F83D30FB737B685B8D9BB2002B4B
:1049E0002CD07B685B6A7A6812681269D2B21A703E
:1049F0007B685B6A5A1C7B685A627B685B8D9BB2E2
:104A0000013B9AB27B685A857B685B8D9BB2002B19
:104A100014D1FB7B2A2B11D17B681B687A68126842
:104A2000526822F480625A607B6822221A637B6893
:104A3000282283F83D207868FFF778F900BF103707
:104A4000BD4680BD80B483B000AF78607B685B8D6D
:104A50009BB2002B12D07B685B6A7A68126812697D
:104A6000D2B21A707B685B6A5A1C7B685A627B6898
:104A70005B8D9BB2013B9AB27B685A8500BF0C37B5
:104A8000BD465DF8047B704780B584B000AF7860A8
:104A900039600023FB737B6893F83D30DBB203F091
:104AA0002803282B25D17B681B687A681268526816
:104AB00022F480625A603B6803F00403002B01D1AA
:104AC0000123FB733B6803F08003002B03D17B6859
:104AD000DB68BB8102E07B689B69BB817B6800224D
:104AE00083F83C20BA89FB7B19467868FFF728F9E0
:104AF0000EE00023BB607B681B685B69BB607B6862
:104B00001B689B69BB60BB687B68002283F83C2004
:104B100000BF1037BD4680BD80B584B000AF78605F
:104B20007B6893F83D30FB737B681B687A6812687A
:104B3000526822F4E0625A600023BB607B681B6805
:104B40005B69BB607B681B687A681268126842F018
:104B500001021A60BB687B681B687A681268126879
:104B600022F480621A607B681B685B6803F4006350
:104B7000002B72D0FB7B222B02D0FB7B2A2B35D162
:104B80007B689B6B1B685B689AB27B685A857B6805
:104B90005B8D9BB2002B05D07B681B6C43F004023D
:104BA0007B681A647B681B687A681268526822F412
:104BB00000625A607B689B6B1846FEF7E1F903467A
:104BC000012B49D07B689B6B694A1A657B689B6B9C
:104BD0001846FEF729F80346002B3DD07B689B6BF7
:104BE0001B6D7A68926B1046984735E07B685B6B6B
:104BF0001B685B689AB27B685A857B685B8D9BB249
:104C0000002B05D07B681B6C43F004027B681A64A0
:104C10007B681B687A681268526822F400625A60E6
:104C20007B685B6B1846FEF7ABF90346012B14D08B
:104C30007B685B6B4E4A1A657B685B6B1846FDF7B9
:104C4000F3FF0346002B08D07B685B6B1B6D7A6813
:104C5000526B1046984700E000BF7B685B8D9BB2AB
:104C6000002B3ED07B681B685B6903F00403002BBC
:104C700012D07B685B6A7A6812681269D2B21A70C5
:104C80007B685B6A5A1C7B685A627B685B8D9BB24F
:104C9000013B9AB27B685A857B681B685B6903F0AD
:104CA0004003002B12D07B685B6A7A681268126935
:104CB000D2B21A707B685B6A5A1C7B685A627B6846
:104CC0005B8D9BB2013B9AB27B685A857B685B8D9A
:104CD0009BB2002B05D07B681B6C43F004027B6801
:104CE0001A647B681B6C002B03D0786800F0B8F85E
:104CF00039E0FB7B2A2B09D17B6800221A637B6891
:104D0000282283F83D207868FFF710F87B6893F835
:104D10003D30DBB2282B11D17B68164ADA627B6802
:104D200000221A637B68202283F83D207B680022E2
:104D300083F83E207868FFF711F814E07B681B6B5E
:104D4000222B02D0FB7B222B0DD17B6800221A6321
:104D50007B68202283F83D207B68002283F83E2078
:104D60007868FEF7E3FF00BF1037BD4680BD00BF87
:104D7000E95100080000FFFF80B584B000AF786003
:104D80007B6893F83D30FB737B68DB6ABB60BB6874
:104D9000082B02D0BB68202B29D1FB7B282B26D1E6
:104DA0007B682E4ADA627B681B687A6812685268F0
:104DB00022F4E0625A607B681B686FF480625A617B
:104DC0007B681B687A681268126822F480621A6035
:104DD0007B6800221A637B68202283F83D207B6871
:104DE000002283F83E207868FEF7B8FF31E0FB7BB5
:104DF000212B29D17B68194ADA627B6821221A6348
:104E00007B68202283F83D207B68002283F83E20C7
:104E10007B681B687A681268526822F4E0625A6004
:104E20007B681B686FF480625A617B681B687A68D4
:104E30001268126822F480621A607868FEF756FCE5
:104E40007868FEF769FF04E07B681B686FF4806296
:104E50005A6100BF1037BD4680BD00BF0000FFFF94
:104E600080B584B000AF78607B6893F83D30FB7309
:104E70007B6893F83E30BB73BB7B102B02D0BB7BAF
:104E8000402B0AD1FB7B222B07D17B681B687A68F9
:104E90001268126822F400621A60FB7B03F0280398
:104EA000282B07D17B6800221A637B68282283F8AD
:104EB0003D2014E07B681B685B6803F40063002BF3
:104EC0000AD1FB7B602B07D07B68202283F83D2032
:104ED0007B68002283F83E207B6800221A637B688F
:104EE0001B685B6803F40063002B62D07B681B685F
:104EF0007A681268526822F400625A607B685B6BC1
:104F000093F83530DBB2012B20D07B685B6B6A4AAB
:104F10001A657B685B6B1846FDF786FE0346002B1F
:104F200000F089807B681B687A681268126822F03A
:104F300001021A607B68202283F83D207B685B6B4E
:104F40001B6D7A68526B1046984774E07B689B6BC8
:104F5000594A1A657B689B6B1846FDF765FE034648
:104F6000002B68D07B681B685B6903F04003002B53
:104F70000BD07B685B6A7A6812681269D2B21A70C9
:104F80007B685B6A5A1C7B685A627B681B687A681C
:104F90001268126822F001021A607B68202283F8EE
:104FA0003D207B689B6B1B6D7A68926B104698471F
:104FB00041E07B6893F83D30DBB2602B25D17B6804
:104FC000202283F83D207B6800221A647B681B68DE
:104FD0005B6903F04003002B0BD07B685B6A7A6847
:104FE00012681269D2B21A707B685B6A5A1C7B68BD
:104FF0005A627B681B687A681268126822F00102A4
:105000001A607868FEF7D2FE15E07B681B685B6962
:1050100003F04003002B0BD07B685B6A7A68126850
:105020001269D2B21A707B685B6A5A1C7B685A623A
:105030007868FEF7B1FE7B681B6CBB60BB6803F051
:105040000103002B0ED1BB6803F00203002B09D132
:10505000BB6803F00403002B04D1BB6803F0080312
:10506000002B07D07B681B687A681268526822F4AC
:10507000E0625A607B6893F83D30FB737B681B6C81
:1050800003F00403002B13D0FB7B282B10D17B688B
:105090000A4ADA627B6800221A637B68202283F85E
:1050A0003D207B68002283F83E207868FEF756FE9C
:1050B00000BF1037BD4680BDE95100080000FFFF6A
:1050C00080B588B002AFF860084611461A4603461C
:1050D0007B810B463B811346FB80FB681B68FA68AB
:1050E0001268126842F480721A607B6A00933B6A0D
:1050F00000224FF00111F86800F01CF90346002B64
:105100000CD0FB681B681B6803F48073002B03D072
:10511000FB684FF400721A6403235EE0FB681B68AF
:105120007A89D2B202F0FE021A617B6A3A6A2D498C
:10513000F86800F079F90346002B01D001234CE018
:1051400000237B61FB681B685B697B61FB681B68F4
:105150009B697B617B697A6A396AF86800F004FAB6
:105160000346002B0DD0FB681B6C042B07D1FB689A
:105170001B68FA681268126842F400721A60012310
:105180002BE0FB88012B05D1FB681B683A89D2B262
:105190001A6121E0FB681B683A89120A92B2D2B206
:1051A0001A617A6A396AF86800F0DEF90346002B62
:1051B0000DD0FB681B6C042B07D1FB681B68FA68D9
:1051C0001268126842F400721A60012305E0FB685D
:1051D0001B683A89D2B21A61002318461837BD46B7
:1051E00080BD00BF0200010080B586B000AF7860CE
:1051F0000023FB607B689B6B7B617B6993F83D3090
:10520000FB744A4B1B68DB08494AA2FB03231A0ABA
:1052100013469B001344DA00D31AFB60FB68002B93
:1052200006D17B691B6C43F020027B691A6409E09C
:10523000FB68013BFB607B691B681B6803F4007320
:10524000002BEBD17B695B6B002B03D07B695B6B25
:105250000022DA637B699B6B002B03D07B699B6B1D
:105260000022DA637B691B687A691268126822F48B
:1052700080621A607B6900225A857B695B6B002B18
:1052800003D07B695B6B00221A657B699B6B002BEB
:1052900003D07B699B6B00221A657B691B687A6966
:1052A0001268126822F001021A607B6993F83D309F
:1052B000DBB2602B0ED17B69202283F83D207B6915
:1052C000002283F83E207B6900221A647869FEF789
:1052D0006DFD27E0FB7C03F02803282B17D17B69A9
:1052E0001B687A691268126842F001021A607B69D1
:1052F0001B687A691268126842F480621A607B69DE
:1053000000221A637B69282283F83D2007E07B692D
:10531000202283F83D207B69002283F83E207869B3
:10532000FEF73AFD00BF1837BD4680BD640000207F
:1053300089B5F81480B584B000AFF860B9603B60FF
:105340001346FB7148E03B68B3F1FF3F44D0FCF7E4
:1053500079FC0246BB69D21A3B689A4202D83B6884
:10536000002B39D1BB681B0CDBB2012B0DD1FB68C4
:105370001B685B69DA43BB6813409BB2002B0CBF10
:1053800001230023DBB21A460CE0FB681B689B6913
:10539000DA43BB6813409BB2002B0CBF01230023F0
:1053A000DBB21A46FB799A4216D1FB6800221A63D7
:1053B000FB68202283F83D20FB68002283F83E2012
:1053C000FB681B6C43F02002FB681A64FB68002238
:1053D00083F83C20012323E0BB681B0CDBB2012BCC
:1053E0000DD1FB681B685B69DA43BB6813409BB255
:1053F000002B0CBF01230023DBB21A460CE0FB6834
:105400001B689B69DA43BB6813409BB2002B0CBF3F
:1054100001230023DBB21A46FB799A4293D0002382
:1054200018461037BD4680BD80B584B000AFF86027
:10543000B9607A603B6070E0FB681B685B6903F4ED
:105440008063002B23D0FB681B68FA68126812681F
:1054500042F400721A60FB681B686FF480625A6144
:10546000FB6800221A63FB68202283F83D20FB685A
:10547000002283F83E20FB681B6C43F00402FB68AB
:105480001A64FB68002283F83C20012367E07B68F4
:10549000B3F1FF3F41D0FCF7D5FB02463B68D21A7F
:1054A0007B689A4202D87B68002B36D1BB681B0C04
:1054B000DBB2012B0CD1FB681B685B69DA43BB686C
:1054C00013409BB2002B14BF01230023DBB20BE07F
:1054D000FB681B689B69DA43BB6813409BB2002BD7
:1054E00014BF01230023DBB2002B16D0FB6800227F
:1054F0001A63FB68202283F83D20FB68002283F8B2
:105500003E20FB681B6C43F02002FB681A64FB68BA
:10551000002283F83C20012321E0BB681B0CDBB296
:10552000012B0CD1FB681B685B69DA43BB68134035
:105530009BB2002B14BF01230023DBB20BE0FB68FE
:105540001B689B69DA43BB6813409BB2002B14BFF6
:1055500001230023DBB2002B7FF46EAF002318463B
:105560001037BD4680BD00BF80B584B000AFF86085
:10557000B9607A6034E0F86800F0B8F80346002BB0
:1055800001D0012334E0BB68B3F1FF3F28D0FCF722
:1055900059FB02467B68D21ABB689A4202D8BB68A4
:1055A000002B1DD1FB681B685B6903F08003002B97
:1055B00016D1FB6800221A63FB68202283F83D2085
:1055C000FB68002283F83E20FB681B6C43F020023E
:1055D000FB681A64FB68002283F83C20012307E083
:1055E000FB681B685B6903F08003002BC3D00023BA
:1055F00018461037BD4680BD80B584B000AFF86056
:10560000B9607A6034E0F86800F070F80346002B67
:1056100001D0012334E0BB68B3F1FF3F28D0FCF791
:1056200011FB02467B68D21ABB689A4202D8BB685B
:10563000002B1DD1FB681B685B6903F00403002B82
:1056400016D1FB6800221A63FB68202283F83D20F4
:10565000FB68002283F83E20FB681B6C43F02002AD
:10566000FB681A64FB68002283F83C20012307E0F2
:10567000FB681B685B6903F00403002BC3D00023A5
:1056800018461037BD4680BD80B485B000AF786045
:105690000023FB60134B1B68DB08134AA2FB0323A8
:1056A0001A0A13469B001344FB60FB68013BFB6036
:1056B000FB68002B07D17B681B6C43F020027B68E2
:1056C0001A64012307E07B681B681B6803F40073FE
:1056D000002BEAD1002318461437BD465DF8047B41
:1056E000704700BF6400002089B5F81480B483B00F
:1056F00000AF78607B681B685B6903F48063002BF4
:105700001BD07B681B686FF480625A617B68002243
:105710001A637B68202283F83D207B68002283F88F
:105720003E207B681B6C43F004027B681A647B6834
:10573000002283F83C20012300E0002318460C37A8
:10574000BD465DF8047B704780B483B000AF7860DD
:105750007B68DB6AB3F52A0F03D17B680122DA622A
:1057600007E07B68DB6AB3F12A4F02D17B6808222D
:10577000DA6200BF0C37BD465DF8047B704700BF9E
:1057800080B584B000AF786039607B68002B01D1B0
:105790000123CCE0684B1B6803F00F023B689A4280
:1057A0000CD2654B3A68D2B21A70634B1B6803F097
:1057B0000F023B689A4201D00123B8E07B681B6866
:1057C00003F00203002B20D07B681B6803F0040366
:1057D000002B05D0594A594B9B6843F4E053936022
:1057E0007B681B6803F00803002B05D0534A534B1A
:1057F0009B6843F4604393605049504B9B6823F08F
:10580000F0027B689B6813438B607B681B6803F026
:105810000103002B44D07B685B68012B07D1474B09
:105820001B6803F40033002B19D101237FE07B6850
:105830005B68022B03D07B685B68032B07D13F4B6F
:105840001B6803F00073002B09D101236FE03B4B71
:105850001B6803F00203002B01D1012367E03749E5
:10586000364B9B6823F003027B685B6813438B60B5
:10587000FCF7E8F9F8600AE0FCF7E4F90246FB6897
:10588000D31A41F28832934201D903234FE02B4BC4
:105890009B6803F00C027B685B689B009A42EBD12B
:1058A000254B1B6803F00F023B689A420CD9224B30
:1058B0003A68D2B21A70204B1B6803F00F023B68A3
:1058C0009A4201D0012332E07B681B6803F0040395
:1058D000002B08D01949194B9B6823F4E0527B68D0
:1058E000DB6813438B607B681B6803F00803002BA5
:1058F00009D01249114B9B6823F460427B681B69F5
:10590000DB0013438B6000F087F801460B4B9B686C
:1059100003F0F0031B090A4AD35C21FA03F3094A96
:105920001360094B1B681846FCF7D2F80023184691
:105930001037BD4680BD00BF003C02400038024029
:1059400084BB0008640000206800002080B400AF21
:10595000034B1B681846BD465DF8047B704700BFCB
:105960006400002080B500AFFFF7F0FF0146054B53
:105970009B6803F4E0539B0A034AD35C21FA03F3C8
:10598000184680BD0038024094BB000880B500AFC7
:10599000FFF7DCFF0146054B9B6803F460435B0B9C
:1059A000034AD35C21FA03F3184680BD0038024055
:1059B00094BB000880B483B000AF786039607B6826
:1059C0000F221A60124B9B6803F003027B685A6037
:1059D0000F4B9B6803F0F0027B689A600C4B9B684E
:1059E00003F4E0527B68DA60094B9B6803F4604380
:1059F000DA087B681A61074B1B6803F00F023B68EB
:105A00001A6000BF0C37BD465DF8047B704700BFCD
:105A100000380240003C02402DE9F04FA1B000AF39
:105A200000237B670023FB6700233B670023FB66A3
:105A30000023BB679C4B9B6803F00C030C2B00F20C
:105A40008E8101A252F823F07D5A00085F5D0008A4
:105A50005F5D00085F5D0008835A00085F5D000815
:105A60005F5D00085F5D0008895A00085F5D0008FF
:105A70005F5D00085F5D0008F75B00088B4BBB674C
:105A800070E18B4BBB676DE1874B5B6803F03F03B5
:105A90007B67854B5B6803F48003002B50D0824BFF
:105AA0005A6847F6C07313409B0919464FF000022D
:105AB0000B461446E0007866786E40EA53707866CC
:105AC000DB003B66D7E918346001F865F86D40EA01
:105AD000D360F8655801B865D7E91656ED1A66EB3C
